S0180000476363426F61726450726F6A656374312E737265630F
S113000029C000002FC000002DC000002BC000003C
S113001029C0000027C0000025C0000023C0000044
S113002021C000001FC000001DC000001BC0000054
S113003019C0000017C0000015C0000013C0000064
S113004011C000000FC000000DC000000BC0000074
S113005009C0000011241FBECFE5D8E0DEBFCDBF2C
S113006049D091C0CDCF87B3806B87BB83E58DB971
S11300701EB808958FB9779BFECF0895779BFECF66
S11300808FB108950F931F93CF93DF93C82F8B01E4
S1130090C49AC49886E0EEDFC49A81EE94E0019796
S11300A0F1F700C00000C49882E0E4DF8C2FE2DFA7
S11300B0E801065F1F4F8991DDDFC017D107D9F72B
S11300C0C49A81EE94E00197F1F700C00000DF913B
S11300D0CF911F910F910895CF93C82FC49AC498BC
S11300E083E0C8DF8C2FC6DF8FEFC4DFC7DFC49A7D
S11300F0CF910895CF93DF93CDB7DEB72A970FB68C
S1130100F894DEBF0FBECDBF8FEF84BBACDF81EEB2
S113011094E00197F1F700C0000080E090E0DCDF9C
S11301208F3FE9F4BE016F5F7F4F8AE0FB011192BC
S11301308A95E9F78FE3898386E08A838BE58B834D
S11301408FE48C8386E68D838DE68E838DE78F83A3
S113015087E088878FE6898780E090E093DF00E07E
S113016010E0C801B9DF85BBFFE32DE083E0F15067
S113017020408040E1F700C000000F5F1F4F0A30AD
S10D0180110579F7ECCFF894FFCFD6
S9030000FC
